{
  "address": "0xa1A48752ed56bb1D7D99c9fAC283e42F52D0d36B",
  "abi": [
    {
      "inputs": [
        {
          "internalType": "address[]",
          "name": "_recipients",
          "type": "address[]"
        },
        {
          "internalType": "address",
          "name": "_tokenAddress",
          "type": "address"
        },
        {
          "internalType": "uint256",
          "name": "_amountForEach",
          "type": "uint256"
        }
      ],
      "name": "splitTokens",
      "outputs": [],
      "stateMutability": "nonpayable",
      "type": "function"
    }
  ],
  "transactionHash": "0x9a4a76b606188c711ed53a040b36d9f750805f30576fc0f1351320fae080e905",
  "args": [],
  "solcInputHash": "6c3804eff2b27832f3b272170b350a82",
  "bytecode": "0x608060405234801561001057600080fd5b506104fe806100206000396000f3fe608060405234801561001057600080fd5b506004361061002b5760003560e01c8063eaca35b014610030575b600080fd5b61004a6004803603810190610045919061021c565b61004c565b005b600082905060005b8451811015610140578173ffffffffffffffffffffffffffffffffffffffff166323b872dd338784815181106100b3577f4e487b7100000000000000000000000000000000000000000000000000000000600052603260045260246000fd5b6020026020010151866040518463ffffffff1660e01b81526004016100da939291906102ca565b602060405180830381600087803b1580156100f457600080fd5b505af1158015610108573d6000803e3d6000fd5b505050506040513d601f19601f8201168201806040525081019061012c9190610283565b508080610138906103cb565b915050610054565b5050505050565b600061015a61015584610326565b610301565b9050808382526020820190508285602086028201111561017957600080fd5b60005b858110156101a9578161018f88826101b3565b84526020840193506020830192505060018101905061017c565b5050509392505050565b6000813590506101c281610483565b92915050565b600082601f8301126101d957600080fd5b81356101e9848260208601610147565b91505092915050565b6000815190506102018161049a565b92915050565b600081359050610216816104b1565b92915050565b60008060006060848603121561023157600080fd5b600084013567ffffffffffffffff81111561024b57600080fd5b610257868287016101c8565b9350506020610268868287016101b3565b925050604061027986828701610207565b9150509250925092565b60006020828403121561029557600080fd5b60006102a3848285016101f2565b91505092915050565b6102b581610352565b82525050565b6102c481610390565b82525050565b60006060820190506102df60008301866102ac565b6102ec60208301856102ac565b6102f960408301846102bb565b949350505050565b600061030b61031c565b9050610317828261039a565b919050565b6000604051905090565b600067ffffffffffffffff82111561034157610340610443565b5b602082029050602081019050919050565b600061035d82610370565b9050919050565b60008115159050919050565b600073ffffffffffffffffffffffffffffffffffffffff82169050919050565b6000819050919050565b6103a382610472565b810181811067ffffffffffffffff821117156103c2576103c1610443565b5b80604052505050565b60006103d682610390565b91507fffffffffffffffffffffffffffffffffffffffffffffffffffffffffffffffff82141561040957610408610414565b5b600182019050919050565b7f4e487b7100000000000000000000000000000000000000000000000000000000600052601160045260246000fd5b7f4e487b7100000000000000000000000000000000000000000000000000000000600052604160045260246000fd5b6000601f19601f8301169050919050565b61048c81610352565b811461049757600080fd5b50565b6104a381610364565b81146104ae57600080fd5b50565b6104ba81610390565b81146104c557600080fd5b5056fea26469706673582212201c72dbb6bc6bbe638d158a45eac80d7351bc2fcd7828b764c4f9b6fd710af2d464736f6c63430008040033",
  "devdoc": {
    "kind": "dev",
    "methods": {},
    "version": 1
  },
  "userdoc": {
    "kind": "user",
    "methods": {},
    "version": 1
  },
  "storageLayout": {
    "storage": [],
    "types": null
  }
}